{
  "contractName": "FileDestruction",
  "abi": [
    {
      "anonymous": false,
      "inputs": [
        {
          "indexed": true,
          "internalType": "uint256",
          "name": "_fileId",
          "type": "uint256"
        }
      ],
      "name": "fileCreated",
      "type": "event"
    },
    {
      "anonymous": false,
      "inputs": [
        {
          "indexed": true,
          "internalType": "uint256",
          "name": "_userId",
          "type": "uint256"
        }
      ],
      "name": "userCreated",
      "type": "event"
    },
    {
      "inputs": [
        {
          "internalType": "uint256",
          "name": "",
          "type": "uint256"
        }
      ],
      "name": "fileList",
      "outputs": [
        {
          "internalType": "string",
          "name": "username",
          "type": "string"
        },
        {
          "internalType": "string",
          "name": "filename",
          "type": "string"
        },
        {
          "internalType": "string",
          "name": "file_key",
          "type": "string"
        },
        {
          "internalType": "string",
          "name": "destruction_date",
          "type": "string"
        }
      ],
      "stateMutability": "view",
      "type": "function",
      "constant": true
    },
    {
      "inputs": [],
      "name": "fileVerifyCount",
      "outputs": [
        {
          "internalType": "uint256",
          "name": "",
          "type": "uint256"
        }
      ],
      "stateMutability": "view",
      "type": "function",
      "constant": true
    },
    {
      "inputs": [],
      "name": "userCount",
      "outputs": [
        {
          "internalType": "uint256",
          "name": "",
          "type": "uint256"
        }
      ],
      "stateMutability": "view",
      "type": "function",
      "constant": true
    },
    {
      "inputs": [
        {
          "internalType": "uint256",
          "name": "",
          "type": "uint256"
        }
      ],
      "name": "userList",
      "outputs": [
        {
          "internalType": "string",
          "name": "username",
          "type": "string"
        },
        {
          "internalType": "string",
          "name": "password",
          "type": "string"
        },
        {
          "internalType": "string",
          "name": "phone",
          "type": "string"
        },
        {
          "internalType": "string",
          "name": "email",
          "type": "string"
        },
        {
          "internalType": "string",
          "name": "home_address",
          "type": "string"
        }
      ],
      "stateMutability": "view",
      "type": "function",
      "constant": true
    },
    {
      "inputs": [
        {
          "internalType": "string",
          "name": "uname",
          "type": "string"
        },
        {
          "internalType": "string",
          "name": "pass",
          "type": "string"
        },
        {
          "internalType": "string",
          "name": "phone",
          "type": "string"
        },
        {
          "internalType": "string",
          "name": "em",
          "type": "string"
        },
        {
          "internalType": "string",
          "name": "add",
          "type": "string"
        }
      ],
      "name": "saveUser",
      "outputs": [],
      "stateMutability": "nonpayable",
      "type": "function"
    },
    {
      "inputs": [],
      "name": "getUserCount",
      "outputs": [
        {
          "internalType": "uint256",
          "name": "",
          "type": "uint256"
        }
      ],
      "stateMutability": "view",
      "type": "function",
      "constant": true
    },
    {
      "inputs": [
        {
          "internalType": "string",
          "name": "uname",
          "type": "string"
        },
        {
          "internalType": "string",
          "name": "fname",
          "type": "string"
        },
        {
          "internalType": "string",
          "name": "fkey",
          "type": "string"
        },
        {
          "internalType": "string",
          "name": "ud",
          "type": "string"
        }
      ],
      "name": "saveFile",
      "outputs": [],
      "stateMutability": "nonpayable",
      "type": "function"
    },
    {
      "inputs": [],
      "name": "getFileCount",
      "outputs": [
        {
          "internalType": "uint256",
          "name": "",
          "type": "uint256"
        }
      ],
      "stateMutability": "view",
      "type": "function",
      "constant": true
    },
    {
      "inputs": [
        {
          "internalType": "uint256",
          "name": "i",
          "type": "uint256"
        }
      ],
      "name": "getUsername",
      "outputs": [
        {
          "internalType": "string",
          "name": "",
          "type": "string"
        }
      ],
      "stateMutability": "view",
      "type": "function",
      "constant": true
    },
    {
      "inputs": [
        {
          "internalType": "uint256",
          "name": "i",
          "type": "uint256"
        }
      ],
      "name": "getPassword",
      "outputs": [
        {
          "internalType": "string",
          "name": "",
          "type": "string"
        }
      ],
      "stateMutability": "view",
      "type": "function",
      "constant": true
    },
    {
      "inputs": [
        {
          "internalType": "uint256",
          "name": "i",
          "type": "uint256"
        }
      ],
      "name": "getPhone",
      "outputs": [
        {
          "internalType": "string",
          "name": "",
          "type": "string"
        }
      ],
      "stateMutability": "view",
      "type": "function",
      "constant": true
    },
    {
      "inputs": [
        {
          "internalType": "uint256",
          "name": "i",
          "type": "uint256"
        }
      ],
      "name": "getEmail",
      "outputs": [
        {
          "internalType": "string",
          "name": "",
          "type": "string"
        }
      ],
      "stateMutability": "view",
      "type": "function",
      "constant": true
    },
    {
      "inputs": [
        {
          "internalType": "uint256",
          "name": "i",
          "type": "uint256"
        }
      ],
      "name": "getAddress",
      "outputs": [
        {
          "internalType": "string",
          "name": "",
          "type": "string"
        }
      ],
      "stateMutability": "view",
      "type": "function",
      "constant": true
    },
    {
      "inputs": [
        {
          "internalType": "uint256",
          "name": "i",
          "type": "uint256"
        }
      ],
      "name": "getOwner",
      "outputs": [
        {
          "internalType": "string",
          "name": "",
          "type": "string"
        }
      ],
      "stateMutability": "view",
      "type": "function",
      "constant": true
    },
    {
      "inputs": [
        {
          "internalType": "uint256",
          "name": "i",
          "type": "uint256"
        }
      ],
      "name": "getFilename",
      "outputs": [
        {
          "internalType": "string",
          "name": "",
          "type": "string"
        }
      ],
      "stateMutability": "view",
      "type": "function",
      "constant": true
    },
    {
      "inputs": [
        {
          "internalType": "uint256",
          "name": "i",
          "type": "uint256"
        }
      ],
      "name": "getKey",
      "outputs": [
        {
          "internalType": "string",
          "name": "",
          "type": "string"
        }
      ],
      "stateMutability": "view",
      "type": "function",
      "constant": true
    },
    {
      "inputs": [
        {
          "internalType": "uint256",
          "name": "i",
          "type": "uint256"
        }
      ],
      "name": "getDestructionDate",
      "outputs": [
        {
          "internalType": "string",
          "name": "",
          "type": "string"
        }
      ],
      "stateMutability": "view",
      "type": "function",
      "constant": true
    }
  ],
  "bytecode": "0x608060405260008055600060025534801561001957600080fd5b5061253a806100296000396000f3fe608060405234801561001057600080fd5b5060043610610128576000357c010000000000000000000000000000000000000000000000000000000090048063b93f9b0a116100bf578063ce57aed21161008e578063ce57aed21461022a578063e901185e1461023d578063e9a6f34614610250578063f18d18cc14610263578063f38c6bb61461027657600080fd5b8063b93f9b0a146101e9578063bab50cc9146101fc578063bb5b27e114610204578063c41a360a1461021757600080fd5b80638f26fd73116100fb5780638f26fd7314610195578063972fe8bc146101aa5780639f4216e8146101bd578063b5cb15f7146101e157600080fd5b806307973ccf1461012d5780632116374114610149578063273ccaa2146101525780632e7d44b514610175575b600080fd5b61013660005481565b6040519081526020015b60405180910390f35b61013660025481565b6101656101603660046120ee565b610289565b6040516101409493929190612154565b6101886101833660046120ee565b6104d1565b60405161014091906121ac565b6101a86101a3366004612282565b6107d9565b005b6101886101b83660046120ee565b6108bd565b6101d06101cb3660046120ee565b610bc5565b60405161014095949392919061232f565b600054610136565b6101886101f73660046120ee565b610e9b565b600254610136565b6101886102123660046120ee565b6111a3565b6101886102253660046120ee565b61138b565b6101886102383660046120ee565b6115ff565b61018861024b3660046120ee565b6117e7565b6101a861025e36600461239c565b611a5d565b6101886102713660046120ee565b611b61565b6101886102843660046120ee565b611ddb565b6003602052600090815260409020805481906102a49061246e565b80601f01602080910402602001604051908101604052809291908181526020018280546102d09061246e565b801561031d5780601f106102f25761010080835404028352916020019161031d565b820191906000526020600020905b81548152906001019060200180831161030057829003601f168201915b5050505050908060010180546103329061246e565b80601f016020809104026020016040519081016040528092919081815260200182805461035e9061246e565b80156103ab5780601f10610380576101008083540402835291602001916103ab565b820191906000526020600020905b81548152906001019060200180831161038e57829003601f168201915b5050505050908060020180546103c09061246e565b80601f01602080910402602001604051908101604052809291908181526020018280546103ec9061246e565b80156104395780601f1061040e57610100808354040283529160200191610439565b820191906000526020600020905b81548152906001019060200180831161041c57829003601f168201915b50505050509080600301805461044e9061246e565b80601f016020809104026020016040519081016040528092919081815260200182805461047a9061246e565b80156104c75780601f1061049c576101008083540402835291602001916104c7565b820191906000526020600020905b8154815290600101906020018083116104aa57829003601f168201915b5050505050905084565b60606000600160008481526020019081526020016000206040518060a00160405290816000820180546105039061246e565b80601f016020809104026020016040519081016040528092919081815260200182805461052f9061246e565b801561057c5780601f106105515761010080835404028352916020019161057c565b820191906000526020600020905b81548152906001019060200180831161055f57829003601f168201915b505050505081526020016001820180546105959061246e565b80601f01602080910402602001604051908101604052809291908181526020018280546105c19061246e565b801561060e5780601f106105e35761010080835404028352916020019161060e565b820191906000526020600020905b8154815290600101906020018083116105f157829003601f168201915b505050505081526020016002820180546106279061246e565b80601f01602080910402602001604051908101604052809291908181526020018280546106539061246e565b80156106a05780601f10610675576101008083540402835291602001916106a0565b820191906000526020600020905b81548152906001019060200180831161068357829003601f168201915b505050505081526020016003820180546106b99061246e565b80601f01602080910402602001604051908101604052809291908181526020018280546106e59061246e565b80156107325780601f1061070757610100808354040283529160200191610732565b820191906000526020600020905b81548152906001019060200180831161071557829003601f168201915b5050505050815260200160048201805461074b9061246e565b80601f01602080910402602001604051908101604052809291908181526020018280546107779061246e565b80156107c45780601f10610799576101008083540402835291602001916107c4565b820191906000526020600020905b8154815290600101906020018083116107a757829003601f168201915b50505091909252505050604001519392505050565b604080516080810182528581526020808201869052818301859052606082018490526002546000908152600382529290922081518051929391926108209284920190612055565b5060208281015180516108399260018501920190612055565b5060408201518051610855916002840191602090910190612055565b5060608201518051610871916003840191602090910190612055565b50506002546040519091507fb88f5170057a832315389bacb6a471640c1145c7948cf1945e4b99fbc47c9d8190600090a2600280549060006108b2836124c2565b919050555050505050565b60606000600160008481526020019081526020016000206040518060a00160405290816000820180546108ef9061246e565b80601f016020809104026020016040519081016040528092919081815260200182805461091b9061246e565b80156109685780601f1061093d57610100808354040283529160200191610968565b820191906000526020600020905b81548152906001019060200180831161094b57829003601f168201915b505050505081526020016001820180546109819061246e565b80601f01602080910402602001604051908101604052809291908181526020018280546109ad9061246e565b80156109fa5780601f106109cf576101008083540402835291602001916109fa565b820191906000526020600020905b8154815290600101906020018083116109dd57829003601f168201915b50505050508152602001600282018054610a139061246e565b80601f0160208091040260200160405190810160405280929190818152602001828054610a3f9061246e565b8015610a8c5780601f10610a6157610100808354040283529160200191610a8c565b820191906000526020600020905b815481529060010190602001808311610a6f57829003601f168201915b50505050508152602001600382018054610aa59061246e565b80601f0160208091040260200160405190810160405280929190818152602001828054610ad19061246e565b8015610b1e5780601f10610af357610100808354040283529160200191610b1e565b820191906000526020600020905b815481529060010190602001808311610b0157829003601f168201915b50505050508152602001600482018054610b379061246e565b80601f0160208091040260200160405190810160405280929190818152602001828054610b639061246e565b8015610bb05780601f10610b8557610100808354040283529160200191610bb0565b820191906000526020600020905b815481529060010190602001808311610b9357829003601f168201915b50505091909252505050606001519392505050565b600160205260009081526040902080548190610be09061246e565b80601f0160208091040260200160405190810160405280929190818152602001828054610c0c9061246e565b8015610c595780601f10610c2e57610100808354040283529160200191610c59565b820191906000526020600020905b815481529060010190602001808311610c3c57829003601f168201915b505050505090806001018054610c6e9061246e565b80601f0160208091040260200160405190810160405280929190818152602001828054610c9a9061246e565b8015610ce75780601f10610cbc57610100808354040283529160200191610ce7565b820191906000526020600020905b815481529060010190602001808311610cca57829003601f168201915b505050505090806002018054610cfc9061246e565b80601f0160208091040260200160405190810160405280929190818152602001828054610d289061246e565b8015610d755780601f10610d4a57610100808354040283529160200191610d75565b820191906000526020600020905b815481529060010190602001808311610d5857829003601f168201915b505050505090806003018054610d8a9061246e565b80601f0160208091040260200160405190810160405280929190818152602001828054610db69061246e565b8015610e035780601f10610dd857610100808354040283529160200191610e03565b820191906000526020600020905b815481529060010190602001808311610de657829003601f168201915b505050505090806004018054610e189061246e565b80601f0160208091040260200160405190810160405280929190818152602001828054610e449061246e565b8015610e915780601f10610e6657610100808354040283529160200191610e91565b820191906000526020600020905b815481529060010190602001808311610e7457829003601f168201915b5050505050905085565b60606000600160008481526020019081526020016000206040518060a0016040529081600082018054610ecd9061246e565b80601f0160208091040260200160405190810160405280929190818152602001828054610ef99061246e565b8015610f465780601f10610f1b57610100808354040283529160200191610f46565b820191906000526020600020905b815481529060010190602001808311610f2957829003601f168201915b50505050508152602001600182018054610f5f9061246e565b80601f0160208091040260200160405190810160405280929190818152602001828054610f8b9061246e565b8015610fd85780601f10610fad57610100808354040283529160200191610fd8565b820191906000526020600020905b815481529060010190602001808311610fbb57829003601f168201915b50505050508152602001600282018054610ff19061246e565b80601f016020809104026020016040519081016040528092919081815260200182805461101d9061246e565b801561106a5780601f1061103f5761010080835404028352916020019161106a565b820191906000526020600020905b81548152906001019060200180831161104d57829003601f168201915b505050505081526020016003820180546110839061246e565b80601f01602080910402602001604051908101604052809291908181526020018280546110af9061246e565b80156110fc5780601f106110d1576101008083540402835291602001916110fc565b820191906000526020600020905b8154815290600101906020018083116110df57829003601f168201915b505050505081526020016004820180546111159061246e565b80601f01602080910402602001604051908101604052809291908181526020018280546111419061246e565b801561118e5780601f106111635761010080835404028352916020019161118e565b820191906000526020600020905b81548152906001019060200180831161117157829003601f168201915b50505091909252505050608001519392505050565b60606000600360008481526020019081526020016000206040518060800160405290816000820180546111d59061246e565b80601f01602080910402602001604051908101604052809291908181526020018280546112019061246e565b801561124e5780601f106112235761010080835404028352916020019161124e565b820191906000526020600020905b81548152906001019060200180831161123157829003601f168201915b505050505081526020016001820180546112679061246e565b80601f01602080910402602001604051908101604052809291908181526020018280546112939061246e565b80156112e05780601f106112b5576101008083540402835291602001916112e0565b820191906000526020600020905b8154815290600101906020018083116112c357829003601f168201915b505050505081526020016002820180546112f99061246e565b80601f01602080910402602001604051908101604052809291908181526020018280546113259061246e565b80156113725780601f1061134757610100808354040283529160200191611372565b820191906000526020600020905b81548152906001019060200180831161135557829003601f168201915b5050505050815260200160038201805461074b9061246e565b60606000600360008481526020019081526020016000206040518060800160405290816000820180546113bd9061246e565b80601f01602080910402602001604051908101604052809291908181526020018280546113e99061246e565b80156114365780601f1061140b57610100808354040283529160200191611436565b820191906000526020600020905b81548152906001019060200180831161141957829003601f168201915b5050505050815260200160018201805461144f9061246e565b80601f016020809104026020016040519081016040528092919081815260200182805461147b9061246e565b80156114c85780601f1061149d576101008083540402835291602001916114c8565b820191906000526020600020905b8154815290600101906020018083116114ab57829003601f168201915b505050505081526020016002820180546114e19061246e565b80601f016020809104026020016040519081016040528092919081815260200182805461150d9061246e565b801561155a5780601f1061152f5761010080835404028352916020019161155a565b820191906000526020600020905b81548152906001019060200180831161153d57829003601f168201915b505050505081526020016003820180546115739061246e565b80601f016020809104026020016040519081016040528092919081815260200182805461159f9061246e565b80156115ec5780601f106115c1576101008083540402835291602001916115ec565b820191906000526020600020905b8154815290600101906020018083116115cf57829003601f168201915b5050509190925250509051949350505050565b60606000600360008481526020019081526020016000206040518060800160405290816000820180546116319061246e565b80601f016020809104026020016040519081016040528092919081815260200182805461165d9061246e565b80156116aa5780601f1061167f576101008083540402835291602001916116aa565b820191906000526020600020905b81548152906001019060200180831161168d57829003601f168201915b505050505081526020016001820180546116c39061246e565b80601f01602080910402602001604051908101604052809291908181526020018280546116ef9061246e565b801561173c5780601f106117115761010080835404028352916020019161173c565b820191906000526020600020905b81548152906001019060200180831161171f57829003601f168201915b505050505081526020016002820180546117559061246e565b80601f01602080910402602001604051908101604052809291908181526020018280546117819061246e565b80156117ce5780601f106117a3576101008083540402835291602001916117ce565b820191906000526020600020905b8154815290600101906020018083116117b157829003601f168201915b50505050508152602001600382018054610b379061246e565b60606000600360008481526020019081526020016000206040518060800160405290816000820180546118199061246e565b80601f01602080910402602001604051908101604052809291908181526020018280546118459061246e565b80156118925780601f1061186757610100808354040283529160200191611892565b820191906000526020600020905b81548152906001019060200180831161187557829003601f168201915b505050505081526020016001820180546118ab9061246e565b80601f01602080910402602001604051908101604052809291908181526020018280546118d79061246e565b80156119245780601f106118f957610100808354040283529160200191611924565b820191906000526020600020905b81548152906001019060200180831161190757829003601f168201915b5050505050815260200160028201805461193d9061246e565b80601f01602080910402602001604051908101604052809291908181526020018280546119699061246e565b80156119b65780601f1061198b576101008083540402835291602001916119b6565b820191906000526020600020905b81548152906001019060200180831161199957829003601f168201915b505050505081526020016003820180546119cf9061246e565b80601f01602080910402602001604051908101604052809291908181526020018280546119fb9061246e565b8015611a485780601f10611a1d57610100808354040283529160200191611a48565b820191906000526020600020905b815481529060010190602001808311611a2b57829003601f168201915b50505091909252505050602001519392505050565b6040805160a0810182528681526020808201879052818301869052606082018590526080820184905260008054815260018252929092208151805192939192611aa99284920190612055565b506020828101518051611ac29260018501920190612055565b5060408201518051611ade916002840191602090910190612055565b5060608201518051611afa916003840191602090910190612055565b5060808201518051611b16916004840191602090910190612055565b5050600080546040519092507f1ed675bb725b3a8b0434b9ee956fe05e4c0e79f9dc67c3f1a717a5bb1fd88fd39190a2600080549080611b55836124c2565b91905055505050505050565b60606000600160008481526020019081526020016000206040518060a0016040529081600082018054611b939061246e565b80601f0160208091040260200160405190810160405280929190818152602001828054611bbf9061246e565b8015611c0c5780601f10611be157610100808354040283529160200191611c0c565b820191906000526020600020905b815481529060010190602001808311611bef57829003601f168201915b50505050508152602001600182018054611c259061246e565b80601f0160208091040260200160405190810160405280929190818152602001828054611c519061246e565b8015611c9e5780601f10611c7357610100808354040283529160200191611c9e565b820191906000526020600020905b815481529060010190602001808311611c8157829003601f168201915b50505050508152602001600282018054611cb79061246e565b80601f0160208091040260200160405190810160405280929190818152602001828054611ce39061246e565b8015611d305780601f10611d0557610100808354040283529160200191611d30565b820191906000526020600020905b815481529060010190602001808311611d1357829003601f168201915b50505050508152602001600382018054611d499061246e565b80601f0160208091040260200160405190810160405280929190818152602001828054611d759061246e565b8015611dc25780601f10611d9757610100808354040283529160200191611dc2565b820191906000526020600020905b815481529060010190602001808311611da557829003601f168201915b505050505081526020016004820180546115739061246e565b60606000600160008481526020019081526020016000206040518060a0016040529081600082018054611e0d9061246e565b80601f0160208091040260200160405190810160405280929190818152602001828054611e399061246e565b8015611e865780601f10611e5b57610100808354040283529160200191611e86565b820191906000526020600020905b815481529060010190602001808311611e6957829003601f168201915b50505050508152602001600182018054611e9f9061246e565b80601f0160208091040260200160405190810160405280929190818152602001828054611ecb9061246e565b8015611f185780601f10611eed57610100808354040283529160200191611f18565b820191906000526020600020905b815481529060010190602001808311611efb57829003601f168201915b50505050508152602001600282018054611f319061246e565b80601f0160208091040260200160405190810160405280929190818152602001828054611f5d9061246e565b8015611faa5780601f10611f7f57610100808354040283529160200191611faa565b820191906000526020600020905b815481529060010190602001808311611f8d57829003601f168201915b50505050508152602001600382018054611fc39061246e565b80601f0160208091040260200160405190810160405280929190818152602001828054611fef9061246e565b801561203c5780601f106120115761010080835404028352916020019161203c565b820191906000526020600020905b81548152906001019060200180831161201f57829003601f168201915b505050505081526020016004820180546119cf9061246e565b8280546120619061246e565b90600052602060002090601f01602090048101928261208357600085556120c9565b82601f1061209c57805160ff19168380011785556120c9565b828001600101855582156120c9579182015b828111156120c95782518255916020019190600101906120ae565b506120d59291506120d9565b5090565b5b808211156120d557600081556001016120da565b60006020828403121561210057600080fd5b5035919050565b6000815180845260005b8181101561212d57602081850181015186830182015201612111565b8181111561213f576000602083870101525b50601f01601f19169290920160200192915050565b6080815260006121676080830187612107565b82810360208401526121798187612107565b9050828103604084015261218d8186612107565b905082810360608401526121a18185612107565b979650505050505050565b6020815260006121bf6020830184612107565b9392505050565b7f4e487b7100000000000000000000000000000000000000000000000000000000600052604160045260246000fd5b600082601f83011261220657600080fd5b813567ffffffffffffffff80821115612221576122216121c6565b604051601f8301601f19908116603f01168101908282118183101715612249576122496121c6565b8160405283815286602085880101111561226257600080fd5b836020870160208301376000602085830101528094505050505092915050565b6000806000806080858703121561229857600080fd5b843567ffffffffffffffff808211156122b057600080fd5b6122bc888389016121f5565b955060208701359150808211156122d257600080fd5b6122de888389016121f5565b945060408701359150808211156122f457600080fd5b612300888389016121f5565b9350606087013591508082111561231657600080fd5b50612323878288016121f5565b91505092959194509250565b60a08152600061234260a0830188612107565b82810360208401526123548188612107565b905082810360408401526123688187612107565b9050828103606084015261237c8186612107565b905082810360808401526123908185612107565b98975050505050505050565b600080600080600060a086880312156123b457600080fd5b853567ffffffffffffffff808211156123cc57600080fd5b6123d889838a016121f5565b965060208801359150808211156123ee57600080fd5b6123fa89838a016121f5565b9550604088013591508082111561241057600080fd5b61241c89838a016121f5565b9450606088013591508082111561243257600080fd5b61243e89838a016121f5565b9350608088013591508082111561245457600080fd5b50612461888289016121f5565b9150509295509295909350565b60028104600182168061248257607f821691505b602082108114156124bc577f4e487b7100000000000000000000000000000000000000000000000000000000600052602260045260246000fd5b50919050565b60006000198214156124fd577f4e487b7100000000000000000000000000000000000000000000000000000000600052601160045260246000fd5b506001019056fea2646970667358221220cecd175183e1287da68adc6679220dd0e3bccd47c48def56e0c3c959295b786564736f6c634300080b0033",
  "immutableReferences": {},
  "source": "pragma solidity >= 0.8.11 <= 0.8.11;\r\npragma experimental ABIEncoderV2;\r\n//FileDestruction solidity code\r\ncontract FileDestruction {\r\n\r\n    uint public userCount = 0; \r\n    mapping(uint => user) public userList; \r\n     struct user\r\n     {\r\n       string username;\r\n       string password;\r\n       string phone;\r\n       string email;\r\n       string home_address;\r\n     }\r\n \r\n   // events \r\n   event userCreated(uint indexed _userId);\r\n   \r\n   //function  to save user details to Blockchain\r\n   function saveUser(string memory uname, string memory pass, string memory phone, string memory em, string memory add) public {\r\n      userList[userCount] = user(uname, pass, phone, em, add);\r\n      emit userCreated(userCount);\r\n      userCount++;\r\n    }\r\n\r\n     //get user count\r\n    function getUserCount()  public view returns (uint) {\r\n          return  userCount;\r\n    }\r\n\r\n    uint public fileVerifyCount = 0; \r\n    mapping(uint => file) public fileList; \r\n     struct file\r\n     {\r\n       string username;\r\n       string filename;\r\n       string file_key;       \r\n       string destruction_date;\r\n     }\r\n \r\n   // events \r\n   event fileCreated(uint indexed _fileId);\r\n   \r\n   //function  to save File hash details to Blockchain\r\n   function saveFile(string memory uname, string memory fname, string memory fkey, string memory ud) public {\r\n      fileList[fileVerifyCount] = file(uname, fname, fkey, ud);\r\n      emit fileCreated(fileVerifyCount);\r\n      fileVerifyCount++;\r\n    }\r\n\r\n    //get File count\r\n    function getFileCount()  public view returns (uint) {\r\n          return fileVerifyCount;\r\n    }\r\n\r\n    function getUsername(uint i) public view returns (string memory) {\r\n        user memory doc = userList[i];\r\n\treturn doc.username;\r\n    }\r\n\r\n    function getPassword(uint i) public view returns (string memory) {\r\n        user memory doc = userList[i];\r\n\treturn doc.password;\r\n    }\r\n\r\n    function getPhone(uint i) public view returns (string memory) {\r\n        user memory doc = userList[i];\r\n\treturn doc.phone;\r\n    }    \r\n\r\n    function getEmail(uint i) public view returns (string memory) {\r\n        user memory doc = userList[i];\r\n\treturn doc.email;\r\n    }\r\n\r\n    function getAddress(uint i) public view returns (string memory) {\r\n        user memory doc = userList[i];\r\n\treturn doc.home_address;\r\n    }\r\n\r\n    function getOwner(uint i) public view returns (string memory) {\r\n        file memory doc = fileList[i];\r\n\treturn doc.username;\r\n    }\r\n\r\n    function getFilename(uint i) public view returns (string memory) {\r\n        file memory doc = fileList[i];\r\n\treturn doc.filename;\r\n    }\r\n\r\n    function getKey(uint i) public view returns (string memory) {\r\n        file memory doc = fileList[i];\r\n\treturn doc.file_key;\r\n    }   \r\n    \r\n    function getDestructionDate(uint i) public view returns (string memory) {\r\n        file memory doc = fileList[i];\r\n\treturn doc.destruction_date;\r\n    } \r\n     \r\n}",
  "sourcePath": "C:\\Users\\Admin\\Desktop\\Blockchain\\hello-eth\\node_modules\\.bin\\contracts\\FileDestruction.sol",
  "compiler": {
    "name": "solc",
    "version": "0.8.11+commit.d7f03943.Emscripten.clang"
  },
  "schemaVersion": "3.4.4",
  "updatedAt": "2025-03-19T14:25:46.775Z",
  "networkType": "ethereum",
  "devdoc": {
    "kind": "dev",
    "methods": {},
    "version": 1
  },
  "userdoc": {
    "kind": "user",
    "methods": {},
    "version": 1
  }
}